S017000068656C6C6F5F776F726C645F696E73742E686578BD
S1130000B701400073A0017CB721800073A00130C8
S113001081400141814101428142014381430144C4
S11300208144014581450146814601478147014894
S1130030814801498149014A814A014B814B014C64
S1130040814C014D814D014E814E014F814F17E18D
S11300500E00130121FB9701000093818106739028
S11300605130A14173A00130B7010300CD2173A029
S1130070217C9301F00773A0117C99619B81C110CD
S113008073A0517CEF10D05201459300A0051301D9
S1130090B0069301C007B74144009B813133B201DC
S11300A0938121220E8201459300C0021301B00303
S11300B0B70147009B819146BE01938101723DA027
S11300C0A1A801000100010081A80100B1A0010064
S11300D0A1A001000100010081A0010035A80100D8
S11300E025A801000100010005A875BF2338E1FE21
S11300F02334F1FE732720349377F7016D93418BFA
S11301003E970E07970700009387C72FBA97986307
S1130110833781FE71170287232ED1FE232CE1FE43
S1130120232AF1FE732720349377F7016D93418BD3
S11301303E970E07970700009387C72CBA979843FA
S11301408326C1FF832741FF711702871300000034
S1130150130000001300000013000000130000004F
S1130160130000001300000013000000130000003F
S1130170130000001300000013000000130000002F
S1130180130000001300000013000000130000001F
S11306C06374D6000BD5C5008280130000000100BE
S11306D082800100130000001300000013000000DA
S11306E01D71A2E8A6E4CAE04EFC52F85AF05EEC92
S11306F0328B62E866E486EC56F413F63800C68C56
S11307002A89AE89368ABA8B3E84428CDA8415E211
S11307108B37087CB3848740DA94DA8A637AF406E8
S11307205686D286850ACE85130500020299E3997E
S113073054FFB30A940019C833868A407D140BC54C
S11307408B80D286CE85D68402997DF493FC2C00CE
S113075063820C02338B64410B3C0C7C637C8B0105
S11307602686050BD286CE851305000285040299E0
S1130770E3688BFFE66046640669E279427AA27A0E
S1130780027BE26B426CA26C2685A66425618280A2
S1130790DA8445B7130000001300000013000000C2
S11307A05D71E643A2E04AF84EF486E426FC464432
S11307B03E8993F903404DEB9E8493F3F3FE639FCC
S11307C0090A93F703028144930F1006CDE7010051
S11307D081478A8EA542D93F9300000229A00100D7
S11307E0638A17021A87337E07031373FE0F1B0FE6
S11307F003033B836F001373F30F63E4C2011373AA
S1130800FF0F8507338EFE00A30F6EFE33530703DD
S1130810E37807FD13F7230035C76384041063915D
S1130820090EE9E7C1476304F81C8947630CF81E05
S1130830930700032300F100854701001300000023
S1130840630E09101307D0020BD7FE008507228818
S11308509E887687EFF0DFE8A6600664E27442794A
S1130860A27961618280010093F7030293F403018A
S1130870930F1006B1DF930F100499BF8988814745
S11308808A8EDDFC1E8793FF13000BB3087C4DE0BA
S113089063F56702130700026381E702130E000386
S11308A0130F000221A001006389E7018507338744
S11308B0FE00A30FC7FFE3E967FEE3800FF60B3EDC
S11308C0047CE3FCC7F5130700026383E708130FF6
S11308D00003930F000219A0638CF7078507338781
S11308E0FE00A30FE7FFE399C7FF05BF0BB3087C26
S11308F06300F30C0B37047C630CF70A130000004D
S113090041476307E80C0947630AE8081307000234
S1130910E38FE7F23E8713080003930717000BD811
S1130920EE0013070002E39DE7F09307000205B70A
S113093063840F04631C0906318B2DEBE3F167F824
S113094013070002E39CE7F4E3F987EC13000000CB
S1130950E9DC93070002E38D09F85DB713F7430060
S113096005EB13F78300E30407EE130700020BD72C
S1130970FE008507E9BD0100E3F167EA1307000201
S1130980E39EE7F0E39D04E893070002C9B5010084
S11309901307B0020BD7FE00850755BD13070002ED
S11309A0E387E7EA3387FE00850731A87D3479B70A
S11309B01387F7FFE30807E6C148630B1807894864
S11309C0E31B18F5769713082006230007013DBFA3
S11309D013F7030215C713070002E38AE7E63E880C
S11309E013078005930718000BD70E0105B793F77B
S11309F003029DE3930780072300F100054721BF0D
S1130A0013070002E385E7E43388FE008507130734
S1130A1080072300E800DDBD930780052300F10073
S1130A200547D5BD930720062300F1000547E5B52A
S1130A3093F803021388E7FFE39408FA7698BA87D9
S1130A40F9B70100130000001300000013000000B8
S1130A5011E18280FD556F10A042130000000100D7
S1130A6001C59C618C6582878280130000000100AF
S1130A708D6887B788E1D398A7A2639708148D6817
S1130A8087B708E2D398A7A2639408128D6887B742
S1130A9088E2D318F5A2639D0810D30700F2D31897
S1130AA0F5A2797106F422F081406385080053F5BC
S1130AB0A70A85401943937808400B171341A54EA4
S1130AC00143930F0003130F000201001300000001
S1130AD063FAEE000503330E6100A30FFEFF7D37BA
S1130AE0E318E3FFD31E05C28D68938888DC8BE688
S1130AF0E876D3870ED28D6807B788E3D377F50AF3
S1130B001B8E0E00D3F7D712539F37C253763FD2B2
S1130B10D3F7C70AD31FF7A263840F0C050FD3774B
S1130B203FD2D38FF6A263850F001B8E1E00014FA8
S1130B3061E3D3070ED207B788E35375F50A531759
S1130B40E5A201C75317A7A219C793781E001B0774
S1130B501E000B1E1743930F0002A94E1300000042
S1130B606303F30D3B67DE030503330F61003B4E64
S1130B70DE031B070703A30FEFFEE3130EFE137739
S1130B80380085486306170B7D47636967006385F2
S1130B90000E1307D0020B5761000503C2880A87B1
S1130BA03E889A87EFF0DFB3A270027445618280B9
S1130BB0D328A5A2638A08148D6887B708E3D318DD
S1130BC0F5A2639B0810ADA21377480041EF0D67AF
S1130BD00D43C288130787BC3E889A876FF05FB0C5
S1130BE0D39EE7A2E3960EF463100F10050F31D3E2
S1130BF09B0807FEBB886800A942254463051703C8
S1130C00B37F5F029B03F7FF930E13009B8F0F03C9
S1130C108B5F6100B35F5F02637EE4071E877683A8
S1130C207E8FE31F17FD137738008548E31817F705
S1130C30A1DF6387000CFD378BB8077CE37613F5DF
S1130C407D47930E0003130E0002E36967F401006D
S1130C50050333076100A30FD7FFE30713F3E31979
S1130C60C3FF2DBF0D671143C288130707BD3E881C
S1130C709A876FF0FFA601001377480025EF1377DA
S1130C808800E30D07F0130700020B57610005030A
S1130C9031B701009308000263821E097937090302
S1130CA00B37077CB308E300130F000313030002A0
S1130CB06384030613000000850E3307D101A30FDC
S1130CC0E7FF638D6E04E3991EFF1307E0021383AD
S1130CD018000B57110141B50D67C288130707BEF1
S1130CE03E8891476FF0DF9F937E1F00E3820EE4FE
S1130CF0050FF5BD1307B0020B576100050379BD5D
S1130D001377C80015DB05BF0D67C288130787BDBD
S1130D103E888D476FF0DF9CF68845BF13030002C1
S1130D2019B70100130000001300000013000000B5
S1130D305971D30700F2CEE4AE89D315F5A2CAE8FF
S1130D40D2E056FC5EF462F086F4A2F0A6EC5AF807
S1130D5066EC368A2A89B28BBE8A428CD30605E2B7
S1130D6089C5D317A522D38607E28BB746FB9B8799
S1130D7017C0D38707D28D6787B607E48D6707B797
S1130D8087E49307F03FD2170BB506CC5D8D8D67D2
S1130D9043F7D77287B707E5D30605F2D3F7F60A08
S1130DA08D6787B687E58D67C3F7D77207B707E600
S1130DB08D6787B687E38D67539607C287B507E8C3
S1130DC08D650D65D30706D29B0C060043F7E76AD1
S1130DD087B685E693750C40D31707C2538707D2AD
S1130DE09B87F73FD2175377D712873605E7194504
S1130DF00B17B540C7F7D7720D65073605E90D65C2
S1130E00073785E7D3F6F7120D65073085E8537683
S1130E10F60A53F7E61AD3F7F7020D655377B702CC
S1130E2053F7E61A53770702D3F6E61A073785E92C
S1130E30D3F6C602D3F7D71AD3F7E702538707F2DC
S1130E40D3F7E712538507E2530705F2D38706F277
S1130E50D397E7A299C7D377B71A9B0CF6FF5385AC
S1130E6007E29307600C1B843C0633B487008B377E
S1130E70BC2C110495CF8D6787B707EA538706F218
S1130E80D387E7A2638A07128D6787B787EAD317E8
S1130E90F7A263830712BB0797410127B3ACEC00A9
S1130EA0FD3701470B979743136C0C400144814C69
S1130EB0BB878A40B33554011336140001488B179D
S1130EC0B8403306C040137B2C007D8E8B176643DD
S1130ED0638A0C00D38706F2530705F2D3F7E71AA7
S1130EE0D38607E2D30700F25316F5A219C6D387B7
S1130EF006F2D397F722D38607E2D38706F253A6E6
S1130F00F7A27D781308F87F33780C0161C20D666F
S1130F10873706E3538706F25316F7A271E6538523
S1130F2006F25E86D286CE854A85EFF07FB4AA8427
S1130F3035C493075004137C0C021305500626860F
S1130F400B958743D286CE8502991BD7FC41B3C645
S1130F50EC0095477D34138614003EE43B87E6405D
S1130F6022E0814829489BD7FC01D286CE854A8558
S1130F70EFF01F83AA8463030B02B30B75418BBA92
S1130F800A7C63FD5B0101002686850BD286CE8533
S1130F901305000285040299E3E85BFFA67006745A
S1130FA04669A669066AE27A427BA27B027CE26C0D
S1130FB02685E664656182809B07F7FF3A868B1776
S1130FC0B7400B96E7423287E5B501000D67C2884A
S1130FD0130787BD3E888D47D2865E86CE854A85B7
S1130FE0EFF00FF0AA84A9B70D67C288130707BEF4
S1130FF03E889147D5B7130000001300000001009C
S1131000357122E926E54AE1CEFCDAF006EDD2F8A4
S1131010D6F4DEECE2E8E6E4EAE06EFC22B426B0C4
S113102083C70600368481469386066D0B95B640C9
S11310302E8BB2892A898144638F07523A8A0D67BD
S1131040873487E18D6A0D67073407E3938A8ABE84
S113105019A801002686CE86DA853E858504029984
S113106083470400E1CB130750020504E394E7FE31
S1131070014841471300000022830B4513989B0746
S113108005FE93F7F70F6365F7008BC7FA44828771
S11310909B0705FD93F7F70F25476371F710930737
S11310A0A002814B6302F5129307E002014C630333
S11310B0F50C9B0785F993F7F70F4947636EF70023
S11310C00D671307C7C28B47F7448287136808105C
S11310D003451400012805039B07B5FD93F7F70F9B
S11310E0130730051A84636BF70E0D67130787C760
S11310F08B47F744828701001368180001281A847B
S1131100A5BF01001368280001281A84B5B701009F
S11311101368480001281A8485B701001368080180
S113112001281A8491BF01001368880001281A84D9
S1131130A1B701001B8404009387F9FF33B634017F
S11311408B94C740CE862686DA8501450299EA60EB
S113115022854A64AA640A69E679467AA67A067BF5
S1131160E66B466CA66C066DE27D223482340D611A
S11311708280010003451400136808409B0705FDA5
S113118093F7F70F25479A860128637FF72493077F
S1131190A0026305F5281A84050321BF814BA546E7
S11311A01B962B00BB0776019B971700A99F03454D
S11311B003001A841B0705FD1377F70F9B8B07FDAC
S11311C00503E3FFE6FCCDB58B478A58BE8B63CDA0
S11311D00700034514001A840503F9B52686CE8654
S11311E0DA8585040299ADBD13682800034514000F
S11311F001281A84BB0BF04005037DB593078007D3
S11312006300F52A930780056309F5369307F00612
S1131210630BF542930720066301F54C9376F8FEC1
S113122093079006812613780840A945631FF5406B
S113123063100828930C8A0093F70620368763907E
S1131240074293F70610639C074613760704832727
S11312500A00631C064213770708630B07488BA731
S1131260073C1BD6F74033C7C700119F81270B37B4
S1131270073C36E45EE0E2882E889BD7F701268699
S1131280CE86DA854A85EFF0AFD1AA84668AC9BBD7
S1131290034514009307C0066304F52C1368081073
S11312A00128050315BD0345140093078006630157
S11312B0F52A136808080128050339BD07350A0013
S11312C0936708025327A5A281271305A5FB0B9852
S11312D0A740210A6300072CD31785A2639A072C21
S11312E02686DE876287CE86DA854A85EFF04FF858
S11312F0AA84BDB32686CE86DA85130550028504FA
S11313000299B9BB8B4D8A7883C60D003685631567
S11313100C12F95C6384063E850CEE9CEE8719A0E2
S11313206388FC240BC7178865FFBB8CB74133B7B0
S11313308C01E6878B17EC4013772800137D084057
S113134081273AEC8B9CA743630A072A6388061C0F
S11313502686B3849D40010063070D009B07FCFFB4
S113136063080C1A3E8CCE86DA85930D160002991A
S11313700BC5B481630F05186E86F9BF1368180294
S11313800B478A780128C14742E43EE02686E2887A
S113139041488147CE86DA854A85EFF06FC0AA843A
S11313A0C1B113782800130C8A00630A082003458E
S11313B00A00CE862686DA8502998547138A1400A8
S11313C063FC772D9B87EBFF89048BB7077CBE9466
S11313D05286CE86050ADA85130500020299E3993E
S11313E044FF628AB5B901002546010013000000DC
S11313F09B172C003B8787011B171700299F0BC5E0
S113140016881B0C07FD9B0705FD93F7F70FE37187
S1131410F6FE36841383160069B901000B478A5817
S1131420034524009347F7FFFD970904337CF70035
S113143013031400BDB901008B3C0C7C6380062CA3
S1131440FD1CD9BD9377F50D130770046398E7006D
S11314508567938707803368F800012807350A00F9
S1131460936708025327A5A21375D50F8127130587
S1131470B5FB0B98A740210A630E0710D397A4A2CB
S1131480E39C07E4D31785A2639407122686DE87BC
S11314906287CE86DA854A85EFF09F89AA84C9B629
S11314A0C145937638FF1378084081266304080009
S11314B0F99A8126930C8A0093079006668DE30DB2
S11314C0F5D693074006E309F5D693F70620368749
S11314D06397071C93F70610639407209377070418
S11314E06399071A13770708630C072003570A0048
S11314F036E45EE0E2882E8881470B37077C268637
S1131500CE86DA854A85EFF0AFA9AA846A8A89BEB5
S1131510B28DE26799E3EE84A1B6EE8463F27C13A4
S11315209B87FBFFBB8797418BB7077C938C140089
S1131530B38D970119A00100850C2686CE86DA8525
S113154013050002E6840299E3989DFFEE8409BE28
S11315501368080C03452400012813033400ADBEAE
S11315601368083003452400012813033400ADB682
S1131570BB8CBC416DBB0144C1B6937638FF812658
S11315801378084093E60602C145E31308F2130DED
S11315908A0025BF0D67C2888D475E88130787BD03
S11315A02686CE86DA854A85EFF08F93AA844DBCD1
S11315B00D67C28891475E88130707BED5B7854774
S11315C063F57715F93B938C14008BBB0B7CE69B7E
S11315D019A00100850C2686CE86DA851305000243
S11315E0E6840299E3987CFF03450A00CE865E8672
S11315F0DA8593841B000299628A9DB49B871C0040
S113160063F37C119B87FBFFBB8C97418BB70C7CEE
S1131610938C1400E6973EE819A00100850C2686F9
S1131620CE86DA85130500020299C267E684E39741
S113163097FF83C60D009B8C1B003685E39A06D06A
S1131640A68DEE8431BCA145C28693074006368838
S1131650E319F5E493F70640E38E07BC91BD8337A5
S11316600A002E8813D7F7433346F70036E43307CE
S1131670E640E28826865EE0FD93CE86DA854A85DA
S1131680EFF00F92AA84668AE1BA93F7F70F3E87C8
S1131690CDB603470A00A9BDD284628AD1B203370A
S11316A00A002E8836E42686E2885EE08147CE86EC
S11316B0DA854A85EFF0CF8EAA846A8A55B28337D9
S11316C00A00E28813D7F7433346F70036E45EE0B6
S11316D02E88FD933307E6405DB68945C286B5B7CB
S11316E003370A00E28836E45EE02E88814701BDB4
S11316F01BD6F74133C7C700119FA5BE814C05B95E
S113170003270A00F5B3BE8C0DBFA68BF1BD010003
S1131710411122E006E42A840345050001C90100C1
S1131720FD55EF00E0750B4514887DF9FD552945FD
S1131730EF000075A260026401454101828001004E
S1131740FD556F00E073130000001300000001005A
S11317504111FD551375F50F06E4EF006072A260A8
S113176001454101828013000000130000000100C4
S11317701D71130381020B56D1FEAA8605652EF452
S1131780BAE08A851A877D56130505A506ECBEE4E2
S1131790C2E8C6EC1AE4EFF0BF86E26025618280FD
S11317A05D71130301020B56D1FCAE86AA85014577
S11317B03AF87D561A871305056C06EC3EFCC2E028
S11317C0C6E41AE4EFF0DF83E26061618280010025
S11317D05D711303810236F4B2862E86AA85014513
S11317E03AF81305056C1A8706EC3EFCC2E0C6E421
S11317F01AE4EFF0FF80E260616182801300000070
S11318000111AA8605652E877D562C00130505A5B2
S113181006ECEFF0EFFEE260056182801300000049
S11318203687B2862E86AA8501451305056C6FF0AE
S11318302FFD01001300000013000000130000003E
S11318401D7113038103AA8E05652E8E36FCBAE042
S1131850B2860C081A877D56130505A606F4BEE465
S1131860C2E8C6EC1AE48B5EC1FBEFF06FF9A2701C
S113187025618280000000000000000000000000DC
S11318800000000000000000000000000000000054
S11318904111F32710C03EC6324541018280010048
S11318A0B7070160417723ACE7FE828000000000A7
S11318B00000000000000000000000000000000024
S11318C0B7E7F5059B870710BBD7B70218650CC9A6
S11318D08346C70093E606F893F6F60F2306D7006F
S11318E08BB6472C2300D7008BB7C74C2302F700D5
S11318F08347C70093F7F7072306F70082800100A8
S11319004CC985476384F5048947638DF50099C103
S11319108280010018658347C70093F7770F230679
S1131920F700828018658347C70093F7F70F93E7A2
S113193087002306F70018658347C70093F7F70F5E
S113194093E707012306F7008280010018658347A7
S1131950C70093F7F70F93E787002306F70018658E
S11319608347C70093F7F70E2306F7008280010030
S11319704CCD8947638EF50463E4B702B1C11865A1
S11319808347C70093F7D70F2306F70018658347EB
S1131990C70093F7F70F93E717002306F700828039
S11319A08D47639DF50018658347C70093F7F70FCC
S11319B093E737002306F70082800100828001004C
S11319C018658347C70093F7C70F2306F700828083
S11319D018658347C70093F7E70F2306F7001865D8
S11319E08347C70093F7F70F93E727002306F70011
S11319F082800100130000001300000013000000A7
S1131A000CCD8DC18547639DF50018658347C700DC
S1131A1093F7F70F93E747002306F700828001004E
S1131A208280010018658347C70093F7B70F230628
S1131A30F700828013000000130000001300000070
S1131A400CD182801300000013000000130000007A
S1131A504CD182801300000013000000130000002A
S1131A6081E9B7570110232005001CE50145828058
S1131A7005458280130000001300000013000000DD
S1131A80C1671841FD17630DF70E9441B7E7F505DB
S1131A909B870710BBD7D702186514C98346C700B4
S1131AA0054693E606F893F6F60F2306D7008BB6A1
S1131AB0472C2300D7008BB7C74C2302F70083477A
S1131AC0C70093F7F7072306F7009C455CC9638BAF
S1131AD0C71209476384E70C638E0710DC45094786
S1131AE05CCD6384E70E636FF702C9CF1865834743
S1131AF0C70093F7D70F2306F70018658347C7007D
S1131B0093F7F70F93E717002306F700DC411CCD8A
S1131B10B1CB05476388E7020BC7F5E418D15CD164
S1131B20014582800D47E393E7FE18658347C700AC
S1131B3093F7F70F93E737002306F700DC411CCD3A
S1131B40E9FB0DA018658347C70093F7F70F93E7E8
S1131B5047002306F7000BC7F5E418D15CD1014513
S1131B608280010018658347C70093F7B70F2306E7
S1131B70F7000BC7F5E418D15CD101458280010060
S1131B800545828018658347C70093F7C70F23066E
S1131B90F700DC411CCDB5FFF1B7010018658347A0
S1131BA0C70093F7F70F93E787002306F70018653C
S1131BB08347C70093F7F70F93E707012306F7005E
S1131BC0DC4509475CCDE390E7F218658347C7001D
S1131BD093F7E70F2306F70018658347C70093F7C9
S1131BE0F70F93E727002306F700DC411CCD95F39C
S1131BF095BF010018658347C70093F7770F230645
S1131C00F700E9BD18658347C70093F7F70F93E71B
S1131C1087002306F70018658347C70093F7F70E7C
S1131C202306F70065BD1300000013000000010047
S1131C30C167FD17233005021CC1014582800100E4
S1131C405C5189CF186501008347470193F7070268
S1131C50E5DF2300B700014582800100054582804D
S1131C600145828000000000000000000000000028
S1131C70397156E4AA8A2E8522F84AF04EEC52E8CD
S1131C8006FC26F45AE0AE89328AEF00F0101309FC
S1131C901500137909F01304091023B00A0013097D
S1131CA009200100130000002285EF0000202A8B88
S1131CB0A285D2864E8625C1EFF09FB6AA847D14F4
S1131CC05A8563CF040063E384021B841400B3B415
S1131CD024010B149942EF00001E13090910E9B7FF
S1131CE04A84EF00401D130909107DBF81ECE270A6
S1131CF042740279E269426AA26A026B2685A2747E
S1131D0021618280EF00F00423B0AA0019C55A852E
S1131D10EF00601AE9BFD154D9BF23B06A01C1BF33
S1131D205D711303010232F01A8606EC36F40B5788
S1131D30F1FEC2E0C6E41AE4EFF09FF3E2606161F1
S1131D40828000000000000000000000000000008D
S1131D501D4776079307101C23200700DE0737076B
S1131D60810023A8E74082800000000000000000FA
S1131D70000000000000000000000000000000005F
S1131D8001458280130000001300000013000000CE
S1131D9001458280130000001300000013000000BE
S1131DA001458280000000000000000000000000E7
S1131DB015675971130707B085473AE80D650D4754
S1131DC0821702178507130505EB86F43AEC3EF0FB
S1131DD0A2F0A6ECCAE8EFF0BF9381452810EFF01B
S1131DE03FC8012559E10D65130585EEEFF05F92BB
S1131DF00C082810EFF0DFC8012535E10D65130547
S1131E0085F2EFF0FF908D67938787F69463984788
S1131E1083C7C70036E03AC42306F1000D69930472
S1131E2011001304800431A0EFF09F940BC41498A4
S1131E307DD4A2852810EFF0BFE0AA878127A28570
S1131E40130589F5F5D30D65130505F4EFF05F8CE3
S1131E50A6700674E66446690545656182800D6571
S1131E60130505F0EFF0DF8AE5B70D65130585EC82
S1131E70EFF01F8AF1BF0000000000000000000026
S1131E809B069000F20688C28280130000000100C5
S1131E908280010013000000130000001300000002
S1131EA082800000000000000000AA8517F50300EE
S1131EB00335C50D01A8AA8517F503000335050DE3
S1131EC06F0090041D71A6E4CAE086ECA2E84EFC03
S1131ED052F856F45AF05EEC62E866E493847501B5
S1131EE09307E0022A8963E897049307000263E0FA
S1131EF0B720EF0000619304000293070005114628
S1131F0097E9030093898910CE978067138707FFA9
S1131F106300E4201C64146C1068F19BA29798671A
S1131F2014EE90EA136717004A8598E7EF00205EE5
S1131F3013050401C9A2B7070080C19893C7F7FF2E
S1131F4063E7971A63E5B41AEF00A05B9307701F69
S1131F5063FF973A93D79400638B07281147636F05
S1131F60F73093D764001B8697039B1616001B85D6
S1131F7087038E0697E9030093894909CE96806604
S1131F80C116638B8618FD4531A06353072A006C84
S1131F90638486181C64F19B33879740E3D7E5FE7E
S1131FA003B4090297E80300938848072A86631D4F
S1131FB0141783B789001B5726408545B395E50060
S1131FC063F4B71C03B40901033A8400937ACAFF8B
S1131FD063E79A00B3879A407D47634CF72297FCE6
S1131FE00300938CACF917FA0300033A2AFE03B7F3
S1131FF00C00FD57B30B5401269A6308F73A856722
S1132000FD073E9AFD77337AFA00D2854A85EF00C0
S1132010C050FD572A8B6301F532636D753117FC8F
S11320200300130C2CF703270C00BB0747012320E4
S1132030FC00BE866386AB4003B70C00FD57630DFE
S1132040F740B3077B41B59F2320FC00937BFB0043
S1132050638B0B360567330B7B4193070701410BF9
S1132060B3877741B30C4B01338A97417D17337A99
S1132070EA00D2854A85EF00404AFD576303F542E2
S1132080330565411B070A002A9A83270C0023B8ED
S11320906901136A1A00B99F2320FC0023344B0101
S11320A0630F343B7D46637E563B146413878AFE7C
S11320B0419B858AD98E14E4A545B306E4008CE6D9
S11320C08CEA6367E63E033A8B005A8417F70300F1
S11320D0130747EF146363F3F6001CE317F70300D9
S11320E01307C7ED146363FDF6241CE391ACB147F9
S11320F02320F9000145E6604664A6640669E27996
S1132100427AA27A027BE26B426CA26C25618280E5
S1132110806F0926E39087E003B4090297E803007F
S11321209388C8EFE30714E91C64FD46F19B3387E9
S1132130974063C7E61A23B4190323B01903635FF6
S1132140070A1307F01F6368F70E8D831B871700B8
S11321501B1717000E0703B589004E970C639BD617
S113216027408547B397D700C98F930607FF14EC20
S11321700CE823B4F90000E380ED1B5726408545A5
S1132180B395E500E3E0B7E433F7F50001EF860526
S1132190719A33F7F500112611E7860533F7F50038
S11321A0112665DF7D481B0316001B1313000E0365
S11321B041134E931A851C6D328E6302F50E986797
S11321C03E849C6F719BB30697406341D80EE3C66F
S11321D006FE2297146710684A8593E6160014E7F2
S11321E01CEE90EBEF00A0321305040129B793060F
S11321F00040130600041305F003ADBBA2979867D3
S11322004A851367170098E7EF006030130504014F
S1132210DDB513E7140018E4A29423B8990093E7FA
S113222017004A859CE4EF00802E13050401E1B5F4
S1132230146C1068E5B113D79700914663F2E60E6B
S1132240D14663E8E61A9B05C7059B9515009B06D6
S1132250B7058E05CE959861C115638BE514146797
S1132260F19A63F5D700186BE39BE5FE0C6F83B717
S113227089000CEC18E880E900EF01B75147637F4F
S1132280F70C130740056364F71893D7C4001B8643
S1132290F7069B1616001B85E7068E06E1B9052E88
S11322A093773E004105E1CB1C6D01BF106893E5B7
S11322B014000CE41CEE90EBA29423B4990223B016
S11322C0990293E7160023BC140123B814019CE47B
S11322D022974A8514E3EF0080231305040121BDEE
S11322E093E6140014E4A29423B4990223B099024F
S11322F09366170023BC140123B8140194E4A29735
S11323004A8598E3EF00A02013050401EDB313D62A
S113231034009B0716009B97170001268E07CDB645
S113232013D767009B0597039B9515009B068703AE
S11323308E050DB7630B340F03B40901033A84000F
S1132340137ACAFFB3079A4063659A007D47E34254
S1132350F7EC4A85EF00A01B014571BB1B86C7053E
S11323609B1616001B85B7058E0629B1833703011A
S11323707D3663956718937736004113E5FB03B701
S1132380890093C7F5FFF98F23B4F9008605E3EBC1
S1132390B7C2E38905C233F7F50011E7860533F7C1
S11323A0F500112E65DF7286FDBB130A0A02B1B96E
S11323B003B589009BD626408547B397D700C98FBC
S11323C023B4F9007DB5B30B4B01B30B7041D21BA1
S11323D093DB4B03DE854A85EF002014FD5701474C
S11323E0E305F5CA330565411B870B00330A750104
S11323F069B99306400563EAE60613D7C7009B054F
S1132400F7069B9515009B06E7068E05A1B51307F5
S11324104015636AF70693D7F4001B8687079B165B
S113242016001B8577078E06B1B617FC0300130C44
S11324306CB683270C00BB8647012320DC00EDBE6D
S113244013974B03E31A07BE03B40901569A136AA0
S11324501A00233444019DB923B06C01C5BE5A84CB
S1132460B5B185472334FB00EDB59306401563ED04
S1132470E60413D7F7009B0587079B9515009B0679
S113248077078E05C1BB13074055636DF70493D7D7
S113249024011B86D7079B1616001B85C7078E06CB
S11324A0D1BCC11B338A7C01330A6A410147F1BEA6
S11324B0930504014A85EF00202503B4090183270D
S11324C00C00033A840019B19306405563E3E60215
S11324D013D727019B05D7079B9515009B06C707B4
S11324E08E058DBB9306007F1306F0071305E007E6
S11324F051B49305007F9306E007A9BB83B7890015
S113250071B517F503001305E5AE6F00004617F526
S11325100300130525AE6F000046411122E02A8412
S11325202E8597F7030023A907AE06E4EF000062A7
S1132530FD576306F500A26002644101828097F7AB
S1132540030083A767ADE5DBA2601CC00264410100
S11325508280AA8517F50300033545A309A001115C
S113256022E82A842E8506EC26E44AE0AE84EF00B5
S1132570A00213091500CA852285EFF0BF942A84AE
S113258009C54A86A685EF00203FE26022854264A1
S1132590A264026905618280937775002A87B9EB8A
S11325A09716000083B6069EFD5510632107B37786
S11325B0D600B697D18FD58FE389B7FE834687FFC0
S11325C0B307A740A9C6834697FF9DCE8346A7FFBE
S11325D0A9C68346B7FF9DCE8346C7FF0346D7FFF0
S11325E00345E7FF95CE21C23335A0003E9579150A
S11325F08280DDD683470700050793767700F5FBD5
S1132600098F1305F7FF8280138597FF8280138556
S113261087FF82801385B7FF82801385A7FF82809E
S11326201385C7FF82801385D7FF828000007971EC
S113263022F026EC4AE84EE452E0AE8906F417EAAA
S11326400300130AAA9C2A89EFF0BFEB03370A019F
S113265085671384F7FD046733043441F1982694A5
S113266031807D143204634BF40081454A85EFF0D8
S1132670DFEA83370A01A697630EF5004A85EFF077
S11326801FE9A2700274E2644269A269026A014508
S113269045618280B30580404A85EFF01FE8FD570D
S11326A0630CF50217F703001307C78E1C43833628
S11326B00A01818C93E414003B8487404A8584E6B4
S11326C000C3EFF0DFE4A2700274E2644269A2691D
S11326D0026A05454561828081454A85EFF0FFE342
S11326E003370A01FD46B307E540E3D9F6F893E75B
S11326F017001CE797F7030083B747881D8D97F7EA
S1132700030023A9A7889DBFF5C5011122E826E48B
S11327102E84AA8406ECEFF0DFDE833584FF1307F2
S113272004FF17E503001305658E93F7E5FF3306F1
S1132730F700146603380501F19A6300C81414E61F
S113274085893308D600C1E1033304FF833588004B
S113275097E803009388888C3307674003380701A0
S11327609A9785896308180F03338701233C68000F
S1132770233803016381051693E6170014E71CE26E
S11327809306F01F63E2F6088D839B8617009B96E1
S113279016008E0603388500AA968C621BD6274045
S11327A08547B397C700B3E70701138606FF10EF09
S11327B00CEB1CE598E298ED4264E2602685A26485
S11327C005616FF0DFD48335880085898DE5B69780
S11327D097E8030093888884146A13E81700B30504
S11327E0F70063841611106E90EE14EA2334070187
S11327F09CE179B7828093E61700233CD4FE1CE267
S11328009306F01FE3F2F6F893D69700114663633C
S1132810D60A93D667009B8596039B9515001B8665
S113282086038E05AA959461C115638AD50C9066BA
S1132830719A63F5C700946AE39BD5FE8C6E0CEF26
S113284014EB4264E26098E92685A26498EE05617F
S11328506FF0FFCB639105100C6E106AB69742645B
S11328600CEE90E993E61700E26014E726853E97A4
S1132870A2641CE305616FF09FC98589B69789E955
S1132880833504FF0D8F146F106BAE9714EE90EA2E
S113289013E6170097E6030083B6C66E10E718E93F
S11328A0E3ECD7F097E5030083B545722685EFF096
S11328B01FD819B751466372D60213064005636BDD
S11328C0D60493D6C7009B85F6069B9515001B86F8
S11328D0E6068E0581BFB69701B79B85C6059B9515
S11328E015001B86B6058E0535BF18F518F1233C77
S11328F0170123381701233407019CE175BD033800
S113290085001B56264085473396C700336606016B
S113291010E535B713064015636CD60093D6F7005F
S11329209B8586079B9515001B8676078E05DDBD66
S113293013064055636CD60093D627019B85D607B2
S11329409B9515001B86C6078E05E9BD9305007F80
S11329501306E007C1BD93E6170014E71CE2A9BD06
S1132960828082808280828082808280054582800B
S1132970054582808280828093368600AA82330352
S1132980C500B5EEB346B5009D8AB5EA93767500E9
S1132990A143C9E2937383FF138303FC6362A3041B
S11329A01376F603986118E19C651CE503B80501EC
S11329B02338050183B88501233C1501987118F16A
S11329C09C751CF503B805032338050383B88503F8
S11329D093850504233C150313050504E374A3FC44
S11329E0937383FF138383FF6369A3000D8A984164
S11329F0910518C11105E37CA3FE3303C50009CA80
S1132A000387050085052300E5000505E36A65FEE7
S1132A1016858280B386D340B68303870500850577
S1132A20FD162300E5000505EDFA330676409336DE
S1132A302600F1F685B779714AE803B9050022F05A
S1132A4026EC06F44EE452E02E84AA84630B0902B9
S1132A50833909006383090203BA0900630B0A007E
S1132A6083350A0099C1EFF01FFDD2852685EFF06A
S1132A70BFC9CE852685EFF03FC9CA852685EFF00C
S1132A80BFC8A2850274A2704269A269026A26853F
S1132A90E26445616FF05FC797E7030083B7074FB0
S1132AA06385A70A2C7D797126EC06F422F04AE8A6
S1132AB04EE4AA848DC5014993090020B3872501FA
S1132AC0806301C8A28500602685EFF0FFC37DF80E
S1132AD0AC7C2109E31439FF2685EFF0FFC2AC700A
S1132AE081C52685EFF05FC203B4841F01CC13892E
S1132AF0042063092401A28500602685EFF0DFC06D
S1132B00E31B89FECC6481C52685EFF0FFBFBC487A
S1132B1095C7BC6C2685829703B4045205C00C602B
S1132B2081C52685EFF03FF1A2850274A270426947
S1132B30A2692685E26445616FF01FBDA27002742C
S1132B40E2644269A26945618280828017E30300DE
S1132B501303C34C83370300411106E42A8885E339
S1132B60014581450146814601479308600D730084
S1132B7000007D57AA87630AE5022330A3003305CA
S1132B80F800814501468146014781479308600D5D
S1132B9073000000833703003E9863180501A260A8
S1132BA02330A3003E8541018280EF000001A26032
S1132BB0B1471CC17D554101828017E503000335EF
S1072BC0E53C8280EA
S1132BC8666E690000000000666E692B0000000054
S1132BD86E616E0000000000666E692D0000000042
S1132BE82811000090100000901000001C11000033
S1132BF89010000090100000901000009010000049
S1132C0890100000901000009010000010110000B7
S1132C1890100000041100009010000090100000B3
S1132C28F8100000A6120000D8100000CC10000014
S1132C38D810000090120000D8100000D81000002E
S1132C48D8100000D8100000D8100000D8100000D8
S1132C58D8100000CC100000D8100000D8100000D4
S1132C68D8100000D8100000D8100000CC100000C4
S1132C78F4120000DC110000DC110000DC1100007B
S1132C88DC110000DC110000DC110000DC11000084
S1132C98DC110000DC110000DC110000DC11000074
S1132CA8DC110000DC110000DC110000DC11000064
S1132CB8DC110000DC110000DC110000DC11000054
S1132CC8DC110000DC110000DC110000DC11000044
S1132CD8DC110000DC110000DC110000DC11000034
S1132CE8DC110000DC110000DC110000DC11000024
S1132CF844140000BC12000044140000DC1100005D
S1132D08DC110000DC110000DC110000DC11000003
S1132D18DC110000DC110000DC110000DC110000F3
S1132D28DC110000DC110000DC110000DC110000E3
S1132D38DC110000DC110000DC110000FC110000B3
S1132D48DC110000DC110000DC110000DC110000C3
S1132D58DC110000DC110000DC110000DC110000B3
S1132D68DC110000FC110000A2130000FC1100009B
S1132D7844140000BC12000044140000DC110000DC
S1132D88FC110000DC110000DC110000DC11000063
S1132D98DC110000DC110000FC1100007C130000B1
S1132DA8DC110000DC11000004130000DC11000039
S1132DB8FC110000DC110000DC110000FC11000013
S1132DC8000000000000F03F000000000000244064
S1132DD800000000000059400000000000408F403F
S1132DE8000000000088C34000000000006AF840AA
S1132DF80000000080842E4100000000D0126341CE
S1132E080000000084D797410000000065CDCD4143
S1132E18FFFFFFFFFFFFEF7F0000000065CDCD41FE
S1132E280000000065CDCDC1FFFFFFFFFFFFEFFFEE
S1132E38000000000000E03FFB799F501344D33F9B
S1132E48B3C8608B288AC63F000000000000F83F22
S1132E5861436F63A787D23F71A379094F930A40EF
S1132E68EF39FAFE422EE63F1655B5BBB16B024068
S1132E780000000000002C40000000000000244076
S1132E88000000000000184000000000000000409E
S1132E98000000000000F03F2D431CEBE2361A3F0F
S1132EA80000000080842E41526561647920746FAB
S1132EB8206F70656E207561727400000000000058
S1132EC84661696C656420746F206F70656E205567
S1132ED8415254206465766963650000000000006F
S1132EE85541525420646576696365206F70656E38
S1132EF865640000000000004661696C6564207424
S1132F086F20696E697469616C697A6520554152EC
S1132F1854206465766963650000000000000000C1
S1132F28554152542064657669636520696E6974F5
S1132F3869616C697A6564004661696C65642074CA
S1132F486F2073656E642064617461000000000082
S1132F58446174612073656E743A2025630A000025
S1132F6848656C6C6F2C20554152542100000000B8
S1132F7818080400000000007F7F7F7F7F7F7F7F29
S9030000FC
